{
  "_format": "hh-sol-artifact-1",
  "contractName": "DNews",
  "sourceName": "contracts/DNews.sol",
  "abi": [
    {
      "inputs": [],
      "stateMutability": "nonpayable",
      "type": "constructor"
    },
    {
      "anonymous": false,
      "inputs": [
        {
          "indexed": true,
          "internalType": "address",
          "name": "owner",
          "type": "address"
        },
        {
          "indexed": true,
          "internalType": "address",
          "name": "spender",
          "type": "address"
        },
        {
          "indexed": false,
          "internalType": "uint256",
          "name": "value",
          "type": "uint256"
        }
      ],
      "name": "Approval",
      "type": "event"
    },
    {
      "anonymous": false,
      "inputs": [
        {
          "indexed": true,
          "internalType": "address",
          "name": "previousOwner",
          "type": "address"
        },
        {
          "indexed": true,
          "internalType": "address",
          "name": "newOwner",
          "type": "address"
        }
      ],
      "name": "OwnershipTransferred",
      "type": "event"
    },
    {
      "anonymous": false,
      "inputs": [
        {
          "indexed": true,
          "internalType": "address",
          "name": "from",
          "type": "address"
        },
        {
          "indexed": true,
          "internalType": "address",
          "name": "to",
          "type": "address"
        },
        {
          "indexed": false,
          "internalType": "uint256",
          "name": "value",
          "type": "uint256"
        }
      ],
      "name": "Transfer",
      "type": "event"
    },
    {
      "inputs": [
        {
          "internalType": "address",
          "name": "owner",
          "type": "address"
        },
        {
          "internalType": "address",
          "name": "spender",
          "type": "address"
        }
      ],
      "name": "allowance",
      "outputs": [
        {
          "internalType": "uint256",
          "name": "",
          "type": "uint256"
        }
      ],
      "stateMutability": "view",
      "type": "function"
    },
    {
      "inputs": [
        {
          "internalType": "address",
          "name": "spender",
          "type": "address"
        },
        {
          "internalType": "uint256",
          "name": "amount",
          "type": "uint256"
        }
      ],
      "name": "approve",
      "outputs": [
        {
          "internalType": "bool",
          "name": "",
          "type": "bool"
        }
      ],
      "stateMutability": "nonpayable",
      "type": "function"
    },
    {
      "inputs": [
        {
          "internalType": "address",
          "name": "account",
          "type": "address"
        }
      ],
      "name": "balanceOf",
      "outputs": [
        {
          "internalType": "uint256",
          "name": "",
          "type": "uint256"
        }
      ],
      "stateMutability": "view",
      "type": "function"
    },
    {
      "inputs": [
        {
          "internalType": "uint256",
          "name": "amount",
          "type": "uint256"
        }
      ],
      "name": "burn",
      "outputs": [],
      "stateMutability": "nonpayable",
      "type": "function"
    },
    {
      "inputs": [
        {
          "internalType": "address",
          "name": "account",
          "type": "address"
        },
        {
          "internalType": "uint256",
          "name": "amount",
          "type": "uint256"
        }
      ],
      "name": "burnFrom",
      "outputs": [],
      "stateMutability": "nonpayable",
      "type": "function"
    },
    {
      "inputs": [
        {
          "internalType": "string",
          "name": "_ipfsDataUrl",
          "type": "string"
        }
      ],
      "name": "createBlog",
      "outputs": [],
      "stateMutability": "payable",
      "type": "function"
    },
    {
      "inputs": [],
      "name": "decimals",
      "outputs": [
        {
          "internalType": "uint8",
          "name": "",
          "type": "uint8"
        }
      ],
      "stateMutability": "view",
      "type": "function"
    },
    {
      "inputs": [
        {
          "internalType": "address",
          "name": "spender",
          "type": "address"
        },
        {
          "internalType": "uint256",
          "name": "subtractedValue",
          "type": "uint256"
        }
      ],
      "name": "decreaseAllowance",
      "outputs": [
        {
          "internalType": "bool",
          "name": "",
          "type": "bool"
        }
      ],
      "stateMutability": "nonpayable",
      "type": "function"
    },
    {
      "inputs": [],
      "name": "getAllBlogs",
      "outputs": [
        {
          "internalType": "string[]",
          "name": "",
          "type": "string[]"
        }
      ],
      "stateMutability": "view",
      "type": "function"
    },
    {
      "inputs": [],
      "name": "getAuthorBlogCount",
      "outputs": [
        {
          "internalType": "int256",
          "name": "",
          "type": "int256"
        }
      ],
      "stateMutability": "view",
      "type": "function"
    },
    {
      "inputs": [
        {
          "internalType": "address",
          "name": "author",
          "type": "address"
        }
      ],
      "name": "getAuthorBlogCountByAddr",
      "outputs": [
        {
          "internalType": "int256",
          "name": "",
          "type": "int256"
        }
      ],
      "stateMutability": "view",
      "type": "function"
    },
    {
      "inputs": [
        {
          "internalType": "string",
          "name": "_ipfsDataUrl",
          "type": "string"
        }
      ],
      "name": "getBlogVotes",
      "outputs": [
        {
          "internalType": "int256",
          "name": "",
          "type": "int256"
        }
      ],
      "stateMutability": "view",
      "type": "function"
    },
    {
      "inputs": [
        {
          "internalType": "address",
          "name": "spender",
          "type": "address"
        },
        {
          "internalType": "uint256",
          "name": "addedValue",
          "type": "uint256"
        }
      ],
      "name": "increaseAllowance",
      "outputs": [
        {
          "internalType": "bool",
          "name": "",
          "type": "bool"
        }
      ],
      "stateMutability": "nonpayable",
      "type": "function"
    },
    {
      "inputs": [
        {
          "internalType": "address",
          "name": "to",
          "type": "address"
        },
        {
          "internalType": "uint256",
          "name": "amount",
          "type": "uint256"
        }
      ],
      "name": "mint",
      "outputs": [],
      "stateMutability": "nonpayable",
      "type": "function"
    },
    {
      "inputs": [],
      "name": "name",
      "outputs": [
        {
          "internalType": "string",
          "name": "",
          "type": "string"
        }
      ],
      "stateMutability": "view",
      "type": "function"
    },
    {
      "inputs": [],
      "name": "owner",
      "outputs": [
        {
          "internalType": "address",
          "name": "",
          "type": "address"
        }
      ],
      "stateMutability": "view",
      "type": "function"
    },
    {
      "inputs": [],
      "name": "renounceOwnership",
      "outputs": [],
      "stateMutability": "nonpayable",
      "type": "function"
    },
    {
      "inputs": [],
      "name": "symbol",
      "outputs": [
        {
          "internalType": "string",
          "name": "",
          "type": "string"
        }
      ],
      "stateMutability": "view",
      "type": "function"
    },
    {
      "inputs": [],
      "name": "totalSupply",
      "outputs": [
        {
          "internalType": "uint256",
          "name": "",
          "type": "uint256"
        }
      ],
      "stateMutability": "view",
      "type": "function"
    },
    {
      "inputs": [
        {
          "internalType": "address",
          "name": "to",
          "type": "address"
        },
        {
          "internalType": "uint256",
          "name": "amount",
          "type": "uint256"
        }
      ],
      "name": "transfer",
      "outputs": [
        {
          "internalType": "bool",
          "name": "",
          "type": "bool"
        }
      ],
      "stateMutability": "nonpayable",
      "type": "function"
    },
    {
      "inputs": [
        {
          "internalType": "address",
          "name": "from",
          "type": "address"
        },
        {
          "internalType": "address",
          "name": "to",
          "type": "address"
        },
        {
          "internalType": "uint256",
          "name": "amount",
          "type": "uint256"
        }
      ],
      "name": "transferFrom",
      "outputs": [
        {
          "internalType": "bool",
          "name": "",
          "type": "bool"
        }
      ],
      "stateMutability": "nonpayable",
      "type": "function"
    },
    {
      "inputs": [
        {
          "internalType": "address",
          "name": "newOwner",
          "type": "address"
        }
      ],
      "name": "transferOwnership",
      "outputs": [],
      "stateMutability": "nonpayable",
      "type": "function"
    },
    {
      "inputs": [
        {
          "internalType": "string",
          "name": "_ipfsDataUrl",
          "type": "string"
        }
      ],
      "name": "voteForBlog",
      "outputs": [],
      "stateMutability": "nonpayable",
      "type": "function"
    }
  ],
  "bytecode": "0x60806040526000600a553480156200001657600080fd5b506040518060400160405280600581526020017f444e6577730000000000000000000000000000000000000000000000000000008152506040518060400160405280600281526020017f444e00000000000000000000000000000000000000000000000000000000000081525081600390805190602001906200009b92919062000376565b508060049080519060200190620000b492919062000376565b505050620000d7620000cb6200011c60201b60201c565b6200012460201b60201c565b6200011633620000ec620001ea60201b60201c565b600a620000fa919062000566565b629896806200010a9190620006a3565b620001f360201b60201c565b620007e5565b600033905090565b6000600560009054906101000a900473ffffffffffffffffffffffffffffffffffffffff16905081600560006101000a81548173ffffffffffffffffffffffffffffffffffffffff021916908373ffffffffffffffffffffffffffffffffffffffff1602179055508173ffffffffffffffffffffffffffffffffffffffff168173ffffffffffffffffffffffffffffffffffffffff167f8be0079c531659141344cd1fd0a4f28419497f9722a3daafe3b4186f6b6457e060405160405180910390a35050565b60006012905090565b600073ffffffffffffffffffffffffffffffffffffffff168273ffffffffffffffffffffffffffffffffffffffff16141562000266576040517f08c379a00000000000000000000000000000000000000000000000000000000081526004016200025d906200045e565b60405180910390fd5b6200027a600083836200036c60201b60201c565b80600260008282546200028e9190620004ae565b92505081905550806000808473ffffffffffffffffffffffffffffffffffffffff1673ffffffffffffffffffffffffffffffffffffffff1681526020019081526020016000206000828254620002e59190620004ae565b925050819055508173ffffffffffffffffffffffffffffffffffffffff16600073ffffffffffffffffffffffffffffffffffffffff167fddf252ad1be2c89b69c2b068fc378daa952ba7f163c4a11628f55a4df523b3ef836040516200034c919062000480565b60405180910390a362000368600083836200037160201b60201c565b5050565b505050565b505050565b82805462000384906200071b565b90600052602060002090601f016020900481019282620003a85760008555620003f4565b82601f10620003c357805160ff1916838001178555620003f4565b82800160010185558215620003f4579182015b82811115620003f3578251825591602001919060010190620003d6565b5b50905062000403919062000407565b5090565b5b808211156200042257600081600090555060010162000408565b5090565b600062000435601f836200049d565b91506200044282620007bc565b602082019050919050565b620004588162000704565b82525050565b60006020820190508181036000830152620004798162000426565b9050919050565b60006020820190506200049760008301846200044d565b92915050565b600082825260208201905092915050565b6000620004bb8262000704565b9150620004c88362000704565b9250827fffffffffffffffffffffffffffffffffffffffffffffffffffffffffffffffff038211156200050057620004ff62000751565b5b828201905092915050565b6000808291508390505b60018511156200055d5780860481111562000535576200053462000751565b5b6001851615620005455780820291505b80810290506200055585620007af565b945062000515565b94509492505050565b6000620005738262000704565b915062000580836200070e565b9250620005af7fffffffffffffffffffffffffffffffffffffffffffffffffffffffffffffffff8484620005b7565b905092915050565b600082620005c957600190506200069c565b81620005d957600090506200069c565b8160018114620005f25760028114620005fd5762000633565b60019150506200069c565b60ff84111562000612576200061162000751565b5b8360020a9150848211156200062c576200062b62000751565b5b506200069c565b5060208310610133831016604e8410600b84101617156200066d5782820a90508381111562000667576200066662000751565b5b6200069c565b6200067c84848460016200050b565b9250905081840481111562000696576200069562000751565b5b81810290505b9392505050565b6000620006b08262000704565b9150620006bd8362000704565b9250817fffffffffffffffffffffffffffffffffffffffffffffffffffffffffffffffff0483118215151615620006f957620006f862000751565b5b828202905092915050565b6000819050919050565b600060ff82169050919050565b600060028204905060018216806200073457607f821691505b602082108114156200074b576200074a62000780565b5b50919050565b7f4e487b7100000000000000000000000000000000000000000000000000000000600052601160045260246000fd5b7f4e487b7100000000000000000000000000000000000000000000000000000000600052602260045260246000fd5b60008160011c9050919050565b7f45524332303a206d696e7420746f20746865207a65726f206164647265737300600082015250565b6126c080620007f56000396000f3fe6080604052600436106101405760003560e01c8063706936d4116100b6578063a457c2d71161006f578063a457c2d71461044f578063a9059cbb1461048c578063ae9ea9b5146104c9578063c4c7470014610506578063dd62ed3e14610531578063f2fde38b1461056e57610140565b8063706936d41461036057806370a082311461037c578063715018a6146103b957806379cc6790146103d05780638da5cb5b146103f957806395d89b411461042457610140565b80633950935111610108578063395093511461024057806340c10f191461027d57806342966c68146102a657806348d0bc1f146102cf5780634fa6060f146102fa578063539cf3dc1461032357610140565b806306fdde0314610145578063095ea7b31461017057806318160ddd146101ad57806323b872dd146101d8578063313ce56714610215575b600080fd5b34801561015157600080fd5b5061015a610597565b6040516101679190611e06565b60405180910390f35b34801561017c57600080fd5b50610197600480360381019061019291906119bb565b610629565b6040516101a49190611dd0565b60405180910390f35b3480156101b957600080fd5b506101c261064c565b6040516101cf9190611fa8565b60405180910390f35b3480156101e457600080fd5b506101ff60048036038101906101fa919061196c565b610656565b60405161020c9190611dd0565b60405180910390f35b34801561022157600080fd5b5061022a610685565b6040516102379190611fc3565b60405180910390f35b34801561024c57600080fd5b50610267600480360381019061026291906119bb565b61068e565b6040516102749190611dd0565b60405180910390f35b34801561028957600080fd5b506102a4600480360381019061029f91906119bb565b610738565b005b3480156102b257600080fd5b506102cd60048036038101906102c89190611a38565b6107c2565b005b3480156102db57600080fd5b506102e46107d6565b6040516102f19190611deb565b60405180910390f35b34801561030657600080fd5b50610321600480360381019061031c91906119f7565b61081d565b005b34801561032f57600080fd5b5061034a600480360381019061034591906119f7565b610854565b6040516103579190611deb565b60405180910390f35b61037a600480360381019061037591906119f7565b61087c565b005b34801561038857600080fd5b506103a3600480360381019061039e9190611907565b610991565b6040516103b09190611fa8565b60405180910390f35b3480156103c557600080fd5b506103ce6109d9565b005b3480156103dc57600080fd5b506103f760048036038101906103f291906119bb565b610a61565b005b34801561040557600080fd5b5061040e610a81565b60405161041b9190611d93565b60405180910390f35b34801561043057600080fd5b50610439610aab565b6040516104469190611e06565b60405180910390f35b34801561045b57600080fd5b50610476600480360381019061047191906119bb565b610b3d565b6040516104839190611dd0565b60405180910390f35b34801561049857600080fd5b506104b360048036038101906104ae91906119bb565b610c27565b6040516104c09190611dd0565b60405180910390f35b3480156104d557600080fd5b506104f060048036038101906104eb9190611907565b610c4a565b6040516104fd9190611deb565b60405180910390f35b34801561051257600080fd5b5061051b610c93565b6040516105289190611dae565b60405180910390f35b34801561053d57600080fd5b5061055860048036038101906105539190611930565b610d6c565b6040516105659190611fa8565b60405180910390f35b34801561057a57600080fd5b5061059560048036038101906105909190611907565b610df3565b005b6060600380546105a6906121d0565b80601f01602080910402602001604051908101604052809291908181526020018280546105d2906121d0565b801561061f5780601f106105f45761010080835404028352916020019161061f565b820191906000526020600020905b81548152906001019060200180831161060257829003601f168201915b5050505050905090565b600080610634610eeb565b9050610641818585610ef3565b600191505092915050565b6000600254905090565b600080610661610eeb565b905061066e8582856110be565b61067985858561114a565b60019150509392505050565b60006012905090565b600080610699610eeb565b905061072d818585600160008673ffffffffffffffffffffffffffffffffffffffff1673ffffffffffffffffffffffffffffffffffffffff16815260200190815260200160002060008973ffffffffffffffffffffffffffffffffffffffff1673ffffffffffffffffffffffffffffffffffffffff1681526020019081526020016000205461072891906120a5565b610ef3565b600191505092915050565b610740610eeb565b73ffffffffffffffffffffffffffffffffffffffff1661075e610a81565b73ffffffffffffffffffffffffffffffffffffffff16146107b4576040517f08c379a00000000000000000000000000000000000000000000000000000000081526004016107ab90611ee8565b60405180910390fd5b6107be82826113cb565b5050565b6107d36107cd610eeb565b8261152b565b50565b6000600860003373ffffffffffffffffffffffffffffffffffffffff1673ffffffffffffffffffffffffffffffffffffffff16815260200190815260200160002054905090565b60098160405161082d9190611d7c565b9081526020016040518091039020600081548092919061084c90612233565b919050555050565b60006009826040516108669190611d7c565b9081526020016040518091039020549050919050565b6006819080600181540180825580915050600190039060005260206000200160009091909190915090805190602001906108b79291906117d2565b50336007826040516108c99190611d7c565b908152602001604051809103902060006101000a81548173ffffffffffffffffffffffffffffffffffffffff021916908373ffffffffffffffffffffffffffffffffffffffff160217905550600860003373ffffffffffffffffffffffffffffffffffffffff1673ffffffffffffffffffffffffffffffffffffffff168152602001908152602001600020600081548092919061096590612233565b9190505550600060098260405161097c9190611d7c565b90815260200160405180910390208190555050565b60008060008373ffffffffffffffffffffffffffffffffffffffff1673ffffffffffffffffffffffffffffffffffffffff168152602001908152602001600020549050919050565b6109e1610eeb565b73ffffffffffffffffffffffffffffffffffffffff166109ff610a81565b73ffffffffffffffffffffffffffffffffffffffff1614610a55576040517f08c379a0000000000000000000000000000000000000000000000000000000008152600401610a4c90611ee8565b60405180910390fd5b610a5f6000611702565b565b610a7382610a6d610eeb565b836110be565b610a7d828261152b565b5050565b6000600560009054906101000a900473ffffffffffffffffffffffffffffffffffffffff16905090565b606060048054610aba906121d0565b80601f0160208091040260200160405190810160405280929190818152602001828054610ae6906121d0565b8015610b335780601f10610b0857610100808354040283529160200191610b33565b820191906000526020600020905b815481529060010190602001808311610b1657829003601f168201915b5050505050905090565b600080610b48610eeb565b90506000600160008373ffffffffffffffffffffffffffffffffffffffff1673ffffffffffffffffffffffffffffffffffffffff16815260200190815260200160002060008673ffffffffffffffffffffffffffffffffffffffff1673ffffffffffffffffffffffffffffffffffffffff16815260200190815260200160002054905083811015610c0e576040517f08c379a0000000000000000000000000000000000000000000000000000000008152600401610c0590611f68565b60405180910390fd5b610c1b8286868403610ef3565b60019250505092915050565b600080610c32610eeb565b9050610c3f81858561114a565b600191505092915050565b6000600860008373ffffffffffffffffffffffffffffffffffffffff1673ffffffffffffffffffffffffffffffffffffffff168152602001908152602001600020549050919050565b60606006805480602002602001604051908101604052809291908181526020016000905b82821015610d63578382906000526020600020018054610cd6906121d0565b80601f0160208091040260200160405190810160405280929190818152602001828054610d02906121d0565b8015610d4f5780601f10610d2457610100808354040283529160200191610d4f565b820191906000526020600020905b815481529060010190602001808311610d3257829003601f168201915b505050505081526020019060010190610cb7565b50505050905090565b6000600160008473ffffffffffffffffffffffffffffffffffffffff1673ffffffffffffffffffffffffffffffffffffffff16815260200190815260200160002060008373ffffffffffffffffffffffffffffffffffffffff1673ffffffffffffffffffffffffffffffffffffffff16815260200190815260200160002054905092915050565b610dfb610eeb565b73ffffffffffffffffffffffffffffffffffffffff16610e19610a81565b73ffffffffffffffffffffffffffffffffffffffff1614610e6f576040517f08c379a0000000000000000000000000000000000000000000000000000000008152600401610e6690611ee8565b60405180910390fd5b600073ffffffffffffffffffffffffffffffffffffffff168173ffffffffffffffffffffffffffffffffffffffff161415610edf576040517f08c379a0000000000000000000000000000000000000000000000000000000008152600401610ed690611e68565b60405180910390fd5b610ee881611702565b50565b600033905090565b600073ffffffffffffffffffffffffffffffffffffffff168373ffffffffffffffffffffffffffffffffffffffff161415610f63576040517f08c379a0000000000000000000000000000000000000000000000000000000008152600401610f5a90611f48565b60405180910390fd5b600073ffffffffffffffffffffffffffffffffffffffff168273ffffffffffffffffffffffffffffffffffffffff161415610fd3576040517f08c379a0000000000000000000000000000000000000000000000000000000008152600401610fca90611e88565b60405180910390fd5b80600160008573ffffffffffffffffffffffffffffffffffffffff1673ffffffffffffffffffffffffffffffffffffffff16815260200190815260200160002060008473ffffffffffffffffffffffffffffffffffffffff1673ffffffffffffffffffffffffffffffffffffffff168152602001908152602001600020819055508173ffffffffffffffffffffffffffffffffffffffff168373ffffffffffffffffffffffffffffffffffffffff167f8c5be1e5ebec7d5bd14f71427d1e84f3dd0314c0f7b2291e5b200ac8c7c3b925836040516110b19190611fa8565b60405180910390a3505050565b60006110ca8484610d6c565b90507fffffffffffffffffffffffffffffffffffffffffffffffffffffffffffffffff81146111445781811015611136576040517f08c379a000000000000000000000000000000000000000000000000000000000815260040161112d90611ea8565b60405180910390fd5b6111438484848403610ef3565b5b50505050565b600073ffffffffffffffffffffffffffffffffffffffff168373ffffffffffffffffffffffffffffffffffffffff1614156111ba576040517f08c379a00000000000000000000000000000000000000000000000000000000081526004016111b190611f28565b60405180910390fd5b600073ffffffffffffffffffffffffffffffffffffffff168273ffffffffffffffffffffffffffffffffffffffff16141561122a576040517f08c379a000000000000000000000000000000000000000000000000000000000815260040161122190611e28565b60405180910390fd5b6112358383836117c8565b60008060008573ffffffffffffffffffffffffffffffffffffffff1673ffffffffffffffffffffffffffffffffffffffff168152602001908152602001600020549050818110156112bb576040517f08c379a00000000000000000000000000000000000000000000000000000000081526004016112b290611ec8565b60405180910390fd5b8181036000808673ffffffffffffffffffffffffffffffffffffffff1673ffffffffffffffffffffffffffffffffffffffff16815260200190815260200160002081905550816000808573ffffffffffffffffffffffffffffffffffffffff1673ffffffffffffffffffffffffffffffffffffffff168152602001908152602001600020600082825461134e91906120a5565b925050819055508273ffffffffffffffffffffffffffffffffffffffff168473ffffffffffffffffffffffffffffffffffffffff167fddf252ad1be2c89b69c2b068fc378daa952ba7f163c4a11628f55a4df523b3ef846040516113b29190611fa8565b60405180910390a36113c58484846117cd565b50505050565b600073ffffffffffffffffffffffffffffffffffffffff168273ffffffffffffffffffffffffffffffffffffffff16141561143b576040517f08c379a000000000000000000000000000000000000000000000000000000000815260040161143290611f88565b60405180910390fd5b611447600083836117c8565b806002600082825461145991906120a5565b92505081905550806000808473ffffffffffffffffffffffffffffffffffffffff1673ffffffffffffffffffffffffffffffffffffffff16815260200190815260200160002060008282546114ae91906120a5565b925050819055508173ffffffffffffffffffffffffffffffffffffffff16600073ffffffffffffffffffffffffffffffffffffffff167fddf252ad1be2c89b69c2b068fc378daa952ba7f163c4a11628f55a4df523b3ef836040516115139190611fa8565b60405180910390a3611527600083836117cd565b5050565b600073ffffffffffffffffffffffffffffffffffffffff168273ffffffffffffffffffffffffffffffffffffffff16141561159b576040517f08c379a000000000000000000000000000000000000000000000000000000000815260040161159290611f08565b60405180910390fd5b6115a7826000836117c8565b60008060008473ffffffffffffffffffffffffffffffffffffffff1673ffffffffffffffffffffffffffffffffffffffff1681526020019081526020016000205490508181101561162d576040517f08c379a000000000000000000000000000000000000000000000000000000000815260040161162490611e48565b60405180910390fd5b8181036000808573ffffffffffffffffffffffffffffffffffffffff1673ffffffffffffffffffffffffffffffffffffffff16815260200190815260200160002081905550816002600082825461168491906120fb565b92505081905550600073ffffffffffffffffffffffffffffffffffffffff168373ffffffffffffffffffffffffffffffffffffffff167fddf252ad1be2c89b69c2b068fc378daa952ba7f163c4a11628f55a4df523b3ef846040516116e99190611fa8565b60405180910390a36116fd836000846117cd565b505050565b6000600560009054906101000a900473ffffffffffffffffffffffffffffffffffffffff16905081600560006101000a81548173ffffffffffffffffffffffffffffffffffffffff021916908373ffffffffffffffffffffffffffffffffffffffff1602179055508173ffffffffffffffffffffffffffffffffffffffff168173ffffffffffffffffffffffffffffffffffffffff167f8be0079c531659141344cd1fd0a4f28419497f9722a3daafe3b4186f6b6457e060405160405180910390a35050565b505050565b505050565b8280546117de906121d0565b90600052602060002090601f0160209004810192826118005760008555611847565b82601f1061181957805160ff1916838001178555611847565b82800160010185558215611847579182015b8281111561184657825182559160200191906001019061182b565b5b5090506118549190611858565b5090565b5b80821115611871576000816000905550600101611859565b5090565b600061188861188384612003565b611fde565b9050828152602081018484840111156118a057600080fd5b6118ab84828561218e565b509392505050565b6000813590506118c28161265c565b92915050565b600082601f8301126118d957600080fd5b81356118e9848260208601611875565b91505092915050565b60008135905061190181612673565b92915050565b60006020828403121561191957600080fd5b6000611927848285016118b3565b91505092915050565b6000806040838503121561194357600080fd5b6000611951858286016118b3565b9250506020611962858286016118b3565b9150509250929050565b60008060006060848603121561198157600080fd5b600061198f868287016118b3565b93505060206119a0868287016118b3565b92505060406119b1868287016118f2565b9150509250925092565b600080604083850312156119ce57600080fd5b60006119dc858286016118b3565b92505060206119ed858286016118f2565b9150509250929050565b600060208284031215611a0957600080fd5b600082013567ffffffffffffffff811115611a2357600080fd5b611a2f848285016118c8565b91505092915050565b600060208284031215611a4a57600080fd5b6000611a58848285016118f2565b91505092915050565b6000611a6d8383611b17565b905092915050565b611a7e8161212f565b82525050565b6000611a8f82612044565b611a998185612067565b935083602082028501611aab85612034565b8060005b85811015611ae75784840389528151611ac88582611a61565b9450611ad38361205a565b925060208a01995050600181019050611aaf565b50829750879550505050505092915050565b611b0281612141565b82525050565b611b118161214d565b82525050565b6000611b228261204f565b611b2c8185612078565b9350611b3c81856020860161219d565b611b4581612309565b840191505092915050565b6000611b5b8261204f565b611b658185612089565b9350611b7581856020860161219d565b611b7e81612309565b840191505092915050565b6000611b948261204f565b611b9e818561209a565b9350611bae81856020860161219d565b80840191505092915050565b6000611bc7602383612089565b9150611bd28261231a565b604082019050919050565b6000611bea602283612089565b9150611bf582612369565b604082019050919050565b6000611c0d602683612089565b9150611c18826123b8565b604082019050919050565b6000611c30602283612089565b9150611c3b82612407565b604082019050919050565b6000611c53601d83612089565b9150611c5e82612456565b602082019050919050565b6000611c76602683612089565b9150611c818261247f565b604082019050919050565b6000611c99602083612089565b9150611ca4826124ce565b602082019050919050565b6000611cbc602183612089565b9150611cc7826124f7565b604082019050919050565b6000611cdf602583612089565b9150611cea82612546565b604082019050919050565b6000611d02602483612089565b9150611d0d82612595565b604082019050919050565b6000611d25602583612089565b9150611d30826125e4565b604082019050919050565b6000611d48601f83612089565b9150611d5382612633565b602082019050919050565b611d6781612177565b82525050565b611d7681612181565b82525050565b6000611d888284611b89565b915081905092915050565b6000602082019050611da86000830184611a75565b92915050565b60006020820190508181036000830152611dc88184611a84565b905092915050565b6000602082019050611de56000830184611af9565b92915050565b6000602082019050611e006000830184611b08565b92915050565b60006020820190508181036000830152611e208184611b50565b905092915050565b60006020820190508181036000830152611e4181611bba565b9050919050565b60006020820190508181036000830152611e6181611bdd565b9050919050565b60006020820190508181036000830152611e8181611c00565b9050919050565b60006020820190508181036000830152611ea181611c23565b9050919050565b60006020820190508181036000830152611ec181611c46565b9050919050565b60006020820190508181036000830152611ee181611c69565b9050919050565b60006020820190508181036000830152611f0181611c8c565b9050919050565b60006020820190508181036000830152611f2181611caf565b9050919050565b60006020820190508181036000830152611f4181611cd2565b9050919050565b60006020820190508181036000830152611f6181611cf5565b9050919050565b60006020820190508181036000830152611f8181611d18565b9050919050565b60006020820190508181036000830152611fa181611d3b565b9050919050565b6000602082019050611fbd6000830184611d5e565b92915050565b6000602082019050611fd86000830184611d6d565b92915050565b6000611fe8611ff9565b9050611ff48282612202565b919050565b6000604051905090565b600067ffffffffffffffff82111561201e5761201d6122da565b5b61202782612309565b9050602081019050919050565b6000819050602082019050919050565b600081519050919050565b600081519050919050565b6000602082019050919050565b600082825260208201905092915050565b600082825260208201905092915050565b600082825260208201905092915050565b600081905092915050565b60006120b082612177565b91506120bb83612177565b9250827fffffffffffffffffffffffffffffffffffffffffffffffffffffffffffffffff038211156120f0576120ef61227c565b5b828201905092915050565b600061210682612177565b915061211183612177565b9250828210156121245761212361227c565b5b828203905092915050565b600061213a82612157565b9050919050565b60008115159050919050565b6000819050919050565b600073ffffffffffffffffffffffffffffffffffffffff82169050919050565b6000819050919050565b600060ff82169050919050565b82818337600083830152505050565b60005b838110156121bb5780820151818401526020810190506121a0565b838111156121ca576000848401525b50505050565b600060028204905060018216806121e857607f821691505b602082108114156121fc576121fb6122ab565b5b50919050565b61220b82612309565b810181811067ffffffffffffffff8211171561222a576122296122da565b5b80604052505050565b600061223e8261214d565b91507f7fffffffffffffffffffffffffffffffffffffffffffffffffffffffffffffff8214156122715761227061227c565b5b600182019050919050565b7f4e487b7100000000000000000000000000000000000000000000000000000000600052601160045260246000fd5b7f4e487b7100000000000000000000000000000000000000000000000000000000600052602260045260246000fd5b7f4e487b7100000000000000000000000000000000000000000000000000000000600052604160045260246000fd5b6000601f19601f8301169050919050565b7f45524332303a207472616e7366657220746f20746865207a65726f206164647260008201527f6573730000000000000000000000000000000000000000000000000000000000602082015250565b7f45524332303a206275726e20616d6f756e7420657863656564732062616c616e60008201527f6365000000000000000000000000000000000000000000000000000000000000602082015250565b7f4f776e61626c653a206e6577206f776e657220697320746865207a65726f206160008201527f6464726573730000000000000000000000000000000000000000000000000000602082015250565b7f45524332303a20617070726f766520746f20746865207a65726f20616464726560008201527f7373000000000000000000000000000000000000000000000000000000000000602082015250565b7f45524332303a20696e73756666696369656e7420616c6c6f77616e6365000000600082015250565b7f45524332303a207472616e7366657220616d6f756e742065786365656473206260008201527f616c616e63650000000000000000000000000000000000000000000000000000602082015250565b7f4f776e61626c653a2063616c6c6572206973206e6f7420746865206f776e6572600082015250565b7f45524332303a206275726e2066726f6d20746865207a65726f2061646472657360008201527f7300000000000000000000000000000000000000000000000000000000000000602082015250565b7f45524332303a207472616e736665722066726f6d20746865207a65726f20616460008201527f6472657373000000000000000000000000000000000000000000000000000000602082015250565b7f45524332303a20617070726f76652066726f6d20746865207a65726f2061646460008201527f7265737300000000000000000000000000000000000000000000000000000000602082015250565b7f45524332303a2064656372656173656420616c6c6f77616e63652062656c6f7760008201527f207a65726f000000000000000000000000000000000000000000000000000000602082015250565b7f45524332303a206d696e7420746f20746865207a65726f206164647265737300600082015250565b6126658161212f565b811461267057600080fd5b50565b61267c81612177565b811461268757600080fd5b5056fea2646970667358221220deeaff7a5c01e733d5368bdf20f4a901fceb6f575b56e5602ab763d607c0891b64736f6c63430008040033",
  "linkReferences": {},
  "deployedLinkReferences": {}
}